{
  "contractName": "PaymentSplitter",
  "abi": [
    {
      "inputs": [
        {
          "internalType": "address[]",
          "name": "payees",
          "type": "address[]"
        },
        {
          "internalType": "uint256[]",
          "name": "shares_",
          "type": "uint256[]"
        },
        {
          "internalType": "uint256",
          "name": "_unLockTimePeriod",
          "type": "uint256"
        }
      ],
      "stateMutability": "nonpayable",
      "type": "constructor"
    },
    {
      "anonymous": false,
      "inputs": [
        {
          "indexed": false,
          "internalType": "address",
          "name": "account",
          "type": "address"
        },
        {
          "indexed": false,
          "internalType": "uint256",
          "name": "shares",
          "type": "uint256"
        }
      ],
      "name": "PayeeAdded",
      "type": "event"
    },
    {
      "anonymous": false,
      "inputs": [
        {
          "indexed": false,
          "internalType": "address",
          "name": "from",
          "type": "address"
        },
        {
          "indexed": false,
          "internalType": "uint256",
          "name": "amount",
          "type": "uint256"
        }
      ],
      "name": "PaymentReceived",
      "type": "event"
    },
    {
      "anonymous": false,
      "inputs": [
        {
          "indexed": false,
          "internalType": "address",
          "name": "to",
          "type": "address"
        },
        {
          "indexed": false,
          "internalType": "uint256",
          "name": "amount",
          "type": "uint256"
        }
      ],
      "name": "PaymentReleased",
      "type": "event"
    },
    {
      "inputs": [],
      "name": "percentage",
      "outputs": [
        {
          "internalType": "uint256",
          "name": "",
          "type": "uint256"
        }
      ],
      "stateMutability": "view",
      "type": "function",
      "constant": true
    },
    {
      "inputs": [],
      "name": "unLockTimePeriod",
      "outputs": [
        {
          "internalType": "uint256",
          "name": "",
          "type": "uint256"
        }
      ],
      "stateMutability": "view",
      "type": "function",
      "constant": true
    },
    {
      "inputs": [
        {
          "internalType": "address",
          "name": "",
          "type": "address"
        }
      ],
      "name": "userTime",
      "outputs": [
        {
          "internalType": "uint256",
          "name": "",
          "type": "uint256"
        }
      ],
      "stateMutability": "view",
      "type": "function",
      "constant": true
    },
    {
      "inputs": [],
      "name": "pay",
      "outputs": [],
      "stateMutability": "payable",
      "type": "function",
      "payable": true
    },
    {
      "inputs": [],
      "name": "totalShares",
      "outputs": [
        {
          "internalType": "uint256",
          "name": "",
          "type": "uint256"
        }
      ],
      "stateMutability": "view",
      "type": "function",
      "constant": true
    },
    {
      "inputs": [],
      "name": "totalReleased",
      "outputs": [
        {
          "internalType": "uint256",
          "name": "",
          "type": "uint256"
        }
      ],
      "stateMutability": "view",
      "type": "function",
      "constant": true
    },
    {
      "inputs": [
        {
          "internalType": "address",
          "name": "account",
          "type": "address"
        }
      ],
      "name": "shares",
      "outputs": [
        {
          "internalType": "uint256",
          "name": "",
          "type": "uint256"
        }
      ],
      "stateMutability": "view",
      "type": "function",
      "constant": true
    },
    {
      "inputs": [
        {
          "internalType": "address",
          "name": "account",
          "type": "address"
        }
      ],
      "name": "released",
      "outputs": [
        {
          "internalType": "uint256",
          "name": "",
          "type": "uint256"
        }
      ],
      "stateMutability": "view",
      "type": "function",
      "constant": true
    },
    {
      "inputs": [
        {
          "internalType": "uint256",
          "name": "index",
          "type": "uint256"
        }
      ],
      "name": "payee",
      "outputs": [
        {
          "internalType": "address",
          "name": "",
          "type": "address"
        }
      ],
      "stateMutability": "view",
      "type": "function",
      "constant": true
    },
    {
      "inputs": [
        {
          "internalType": "address",
          "name": "account",
          "type": "address"
        }
      ],
      "name": "releasable",
      "outputs": [
        {
          "internalType": "uint256",
          "name": "",
          "type": "uint256"
        }
      ],
      "stateMutability": "view",
      "type": "function",
      "constant": true
    },
    {
      "inputs": [],
      "name": "release",
      "outputs": [],
      "stateMutability": "nonpayable",
      "type": "function"
    },
    {
      "inputs": [],
      "name": "getContractbalance",
      "outputs": [
        {
          "internalType": "uint256",
          "name": "",
          "type": "uint256"
        }
      ],
      "stateMutability": "view",
      "type": "function",
      "constant": true
    }
  ],
  "bytecode": "0x608060405260326002553480156200001657600080fd5b5060405162001b3538038062001b3583398181016040528101906200003c9190620006e4565b815183511462000083576040517f08c379a00000000000000000000000000000000000000000000000000000000081526004016200007a9062000805565b60405180910390fd5b6000835111620000ca576040517f08c379a0000000000000000000000000000000000000000000000000000000008152600401620000c19062000877565b60405180910390fd5b8060018190555060005b8351811015620001a1576200012a848281518110620000f857620000f762000899565b5b602002602001015184838151811062000116576200011562000899565b5b6020026020010151620001ab60201b60201c565b426007600086848151811062000145576200014462000899565b5b602002602001015173ffffffffffffffffffffffffffffffffffffffff1673ffffffffffffffffffffffffffffffffffffffff1681526020019081526020016000208190555080806200019890620008f7565b915050620000d4565b5050505062000b93565b600073ffffffffffffffffffffffffffffffffffffffff168273ffffffffffffffffffffffffffffffffffffffff1614156200021e576040517f08c379a00000000000000000000000000000000000000000000000000000000081526004016200021590620009bb565b60405180910390fd5b6000811162000264576040517f08c379a00000000000000000000000000000000000000000000000000000000081526004016200025b9062000a2d565b60405180910390fd5b6000600560008473ffffffffffffffffffffffffffffffffffffffff1673ffffffffffffffffffffffffffffffffffffffff1681526020019081526020016000205414620002e9576040517f08c379a0000000000000000000000000000000000000000000000000000000008152600401620002e09062000ac5565b60405180910390fd5b6000829080600181540180825580915050600190039060005260206000200160009091909190916101000a81548173ffffffffffffffffffffffffffffffffffffffff021916908373ffffffffffffffffffffffffffffffffffffffff16021790555080600560008473ffffffffffffffffffffffffffffffffffffffff1673ffffffffffffffffffffffffffffffffffffffff1681526020019081526020016000208190555080600354620003a0919062000ae7565b6003819055507f40c340f65e17194d14ddddb073d3c9f888e3cb52b5aae0c6c7706b4fbc905fac8282604051620003d992919062000b66565b60405180910390a15050565b6000604051905090565b600080fd5b600080fd5b600080fd5b6000601f19601f8301169050919050565b7f4e487b7100000000000000000000000000000000000000000000000000000000600052604160045260246000fd5b6200044982620003fe565b810181811067ffffffffffffffff821117156200046b576200046a6200040f565b5b80604052505050565b600062000480620003e5565b90506200048e82826200043e565b919050565b600067ffffffffffffffff821115620004b157620004b06200040f565b5b602082029050602081019050919050565b600080fd5b600073ffffffffffffffffffffffffffffffffffffffff82169050919050565b6000620004f482620004c7565b9050919050565b6200050681620004e7565b81146200051257600080fd5b50565b6000815190506200052681620004fb565b92915050565b6000620005436200053d8462000493565b62000474565b90508083825260208201905060208402830185811115620005695762000568620004c2565b5b835b8181101562000596578062000581888262000515565b8452602084019350506020810190506200056b565b5050509392505050565b600082601f830112620005b857620005b7620003f9565b5b8151620005ca8482602086016200052c565b91505092915050565b600067ffffffffffffffff821115620005f157620005f06200040f565b5b602082029050602081019050919050565b6000819050919050565b620006178162000602565b81146200062357600080fd5b50565b60008151905062000637816200060c565b92915050565b6000620006546200064e84620005d3565b62000474565b905080838252602082019050602084028301858111156200067a5762000679620004c2565b5b835b81811015620006a7578062000692888262000626565b8452602084019350506020810190506200067c565b5050509392505050565b600082601f830112620006c957620006c8620003f9565b5b8151620006db8482602086016200063d565b91505092915050565b6000806000606084860312156200070057620006ff620003ef565b5b600084015167ffffffffffffffff811115620007215762000720620003f4565b5b6200072f86828701620005a0565b935050602084015167ffffffffffffffff811115620007535762000752620003f4565b5b6200076186828701620006b1565b9250506040620007748682870162000626565b9150509250925092565b600082825260208201905092915050565b7f5061796d656e7453706c69747465723a2070617965657320616e64207368617260008201527f6573206c656e677468206d69736d617463680000000000000000000000000000602082015250565b6000620007ed6032836200077e565b9150620007fa826200078f565b604082019050919050565b600060208201905081810360008301526200082081620007de565b9050919050565b7f5061796d656e7453706c69747465723a206e6f20706179656573000000000000600082015250565b60006200085f601a836200077e565b91506200086c8262000827565b602082019050919050565b60006020820190508181036000830152620008928162000850565b9050919050565b7f4e487b7100000000000000000000000000000000000000000000000000000000600052603260045260246000fd5b7f4e487b7100000000000000000000000000000000000000000000000000000000600052601160045260246000fd5b6000620009048262000602565b91507fffffffffffffffffffffffffffffffffffffffffffffffffffffffffffffffff8214156200093a5762000939620008c8565b5b600182019050919050565b7f5061796d656e7453706c69747465723a206163636f756e74206973207468652060008201527f7a65726f20616464726573730000000000000000000000000000000000000000602082015250565b6000620009a3602c836200077e565b9150620009b08262000945565b604082019050919050565b60006020820190508181036000830152620009d68162000994565b9050919050565b7f5061796d656e7453706c69747465723a20736861726573206172652030000000600082015250565b600062000a15601d836200077e565b915062000a2282620009dd565b602082019050919050565b6000602082019050818103600083015262000a488162000a06565b9050919050565b7f5061796d656e7453706c69747465723a206163636f756e7420616c726561647960008201527f2068617320736861726573000000000000000000000000000000000000000000602082015250565b600062000aad602b836200077e565b915062000aba8262000a4f565b604082019050919050565b6000602082019050818103600083015262000ae08162000a9e565b9050919050565b600062000af48262000602565b915062000b018362000602565b9250827fffffffffffffffffffffffffffffffffffffffffffffffffffffffffffffffff0382111562000b395762000b38620008c8565b5b828201905092915050565b62000b4f81620004e7565b82525050565b62000b608162000602565b82525050565b600060408201905062000b7d600083018562000b44565b62000b8c602083018462000b55565b9392505050565b610f928062000ba36000396000f3fe6080604052600436106100a75760003560e01c8063a21b971a11610064578063a21b971a1461019d578063a3f8eace146101c8578063aa66bfb914610205578063c78ad77f14610242578063ce7c2ac21461026d578063e33b7de3146102aa576100a7565b80631b9265b8146100ac57806334097bc0146100b65780633a98ef39146100e157806386d1a69f1461010c5780638b83209b146101235780639852595c14610160575b600080fd5b6100b46102d5565b005b3480156100c257600080fd5b506100cb6102ea565b6040516100d891906108b3565b60405180910390f35b3480156100ed57600080fd5b506100f66102f2565b60405161010391906108b3565b60405180910390f35b34801561011857600080fd5b506101216102fc565b005b34801561012f57600080fd5b5061014a600480360381019061014591906108ff565b6105fe565b604051610157919061096d565b60405180910390f35b34801561016c57600080fd5b50610187600480360381019061018291906109b4565b610645565b60405161019491906108b3565b60405180910390f35b3480156101a957600080fd5b506101b261068e565b6040516101bf91906108b3565b60405180910390f35b3480156101d457600080fd5b506101ef60048036038101906101ea91906109b4565b610694565b6040516101fc91906108b3565b60405180910390f35b34801561021157600080fd5b5061022c600480360381019061022791906109b4565b6106c7565b60405161023991906108b3565b60405180910390f35b34801561024e57600080fd5b506102576106df565b60405161026491906108b3565b60405180910390f35b34801561027957600080fd5b50610294600480360381019061028f91906109b4565b6106e5565b6040516102a191906108b3565b60405180910390f35b3480156102b657600080fd5b506102bf61072e565b6040516102cc91906108b3565b60405180910390f35b662386f26fc1000034116102e857600080fd5b565b600047905090565b6000600354905090565b60003390506001600760003373ffffffffffffffffffffffffffffffffffffffff1673ffffffffffffffffffffffffffffffffffffffff1681526020019081526020016000205411610383576040517f08c379a000000000000000000000000000000000000000000000000000000000815260040161037a90610a3e565b60405180910390fd5b6000600560008373ffffffffffffffffffffffffffffffffffffffff1673ffffffffffffffffffffffffffffffffffffffff1681526020019081526020016000205411610405576040517f08c379a00000000000000000000000000000000000000000000000000000000081526004016103fc90610ad0565b60405180910390fd5b600061041082610694565b905060006064600254836104249190610b1f565b61042e9190610ba8565b90506000811415610474576040517f08c379a000000000000000000000000000000000000000000000000000000000815260040161046b90610c4b565b60405180910390fd5b42600760003373ffffffffffffffffffffffffffffffffffffffff1673ffffffffffffffffffffffffffffffffffffffff1681526020019081526020016000205411156104f6576040517f08c379a00000000000000000000000000000000000000000000000000000000081526004016104ed90610cb7565b60405180910390fd5b600154426105049190610cd7565b600760003373ffffffffffffffffffffffffffffffffffffffff1673ffffffffffffffffffffffffffffffffffffffff1681526020019081526020016000208190555080600660008573ffffffffffffffffffffffffffffffffffffffff1673ffffffffffffffffffffffffffffffffffffffff16815260200190815260200160002060008282546105969190610cd7565b9250508190555080600460008282546105af9190610cd7565b925050819055506105c08382610738565b7fdf20fd1e76bc69d672e4814fafb2c449bba3a5369d8359adf9e05e6fde87b05683826040516105f1929190610d8c565b60405180910390a1505050565b600080828154811061061357610612610db5565b5b9060005260206000200160009054906101000a900473ffffffffffffffffffffffffffffffffffffffff169050919050565b6000600660008373ffffffffffffffffffffffffffffffffffffffff1673ffffffffffffffffffffffffffffffffffffffff168152602001908152602001600020549050919050565b60015481565b60008061069f61072e565b476106aa9190610cd7565b90506106bf83826106ba86610645565b61082c565b915050919050565b60076020528060005260406000206000915090505481565b60025481565b6000600560008373ffffffffffffffffffffffffffffffffffffffff1673ffffffffffffffffffffffffffffffffffffffff168152602001908152602001600020549050919050565b6000600454905090565b8047101561077b576040517f08c379a000000000000000000000000000000000000000000000000000000000815260040161077290610e30565b60405180910390fd5b60008273ffffffffffffffffffffffffffffffffffffffff16826040516107a190610e81565b60006040518083038185875af1925050503d80600081146107de576040519150601f19603f3d011682016040523d82523d6000602084013e6107e3565b606091505b5050905080610827576040517f08c379a000000000000000000000000000000000000000000000000000000000815260040161081e90610f08565b60405180910390fd5b505050565b600081600354600560008773ffffffffffffffffffffffffffffffffffffffff1673ffffffffffffffffffffffffffffffffffffffff168152602001908152602001600020548561087d9190610b1f565b6108879190610ba8565b6108919190610f28565b90509392505050565b6000819050919050565b6108ad8161089a565b82525050565b60006020820190506108c860008301846108a4565b92915050565b600080fd5b6108dc8161089a565b81146108e757600080fd5b50565b6000813590506108f9816108d3565b92915050565b600060208284031215610915576109146108ce565b5b6000610923848285016108ea565b91505092915050565b600073ffffffffffffffffffffffffffffffffffffffff82169050919050565b60006109578261092c565b9050919050565b6109678161094c565b82525050565b6000602082019050610982600083018461095e565b92915050565b6109918161094c565b811461099c57600080fd5b50565b6000813590506109ae81610988565b92915050565b6000602082840312156109ca576109c96108ce565b5b60006109d88482850161099f565b91505092915050565b600082825260208201905092915050565b7f596f7520646f6e27742068617665207368617265000000000000000000000000600082015250565b6000610a286014836109e1565b9150610a33826109f2565b602082019050919050565b60006020820190508181036000830152610a5781610a1b565b9050919050565b7f5061796d656e7453706c69747465723a206163636f756e7420686173206e6f2060008201527f7368617265730000000000000000000000000000000000000000000000000000602082015250565b6000610aba6026836109e1565b9150610ac582610a5e565b604082019050919050565b60006020820190508181036000830152610ae981610aad565b9050919050565b7f4e487b7100000000000000000000000000000000000000000000000000000000600052601160045260246000fd5b6000610b2a8261089a565b9150610b358361089a565b9250817fffffffffffffffffffffffffffffffffffffffffffffffffffffffffffffffff0483118215151615610b6e57610b6d610af0565b5b828202905092915050565b7f4e487b7100000000000000000000000000000000000000000000000000000000600052601260045260246000fd5b6000610bb38261089a565b9150610bbe8361089a565b925082610bce57610bcd610b79565b5b828204905092915050565b7f5061796d656e7453706c69747465723a206163636f756e74206973206e6f742060008201527f647565207061796d656e74000000000000000000000000000000000000000000602082015250565b6000610c35602b836109e1565b9150610c4082610bd9565b604082019050919050565b60006020820190508181036000830152610c6481610c28565b9050919050565b7f6561726c79207769746864726177207265717565737400000000000000000000600082015250565b6000610ca16016836109e1565b9150610cac82610c6b565b602082019050919050565b60006020820190508181036000830152610cd081610c94565b9050919050565b6000610ce28261089a565b9150610ced8361089a565b9250827fffffffffffffffffffffffffffffffffffffffffffffffffffffffffffffffff03821115610d2257610d21610af0565b5b828201905092915050565b6000819050919050565b6000610d52610d4d610d488461092c565b610d2d565b61092c565b9050919050565b6000610d6482610d37565b9050919050565b6000610d7682610d59565b9050919050565b610d8681610d6b565b82525050565b6000604082019050610da16000830185610d7d565b610dae60208301846108a4565b9392505050565b7f4e487b7100000000000000000000000000000000000000000000000000000000600052603260045260246000fd5b7f416464726573733a20696e73756666696369656e742062616c616e6365000000600082015250565b6000610e1a601d836109e1565b9150610e2582610de4565b602082019050919050565b60006020820190508181036000830152610e4981610e0d565b9050919050565b600081905092915050565b50565b6000610e6b600083610e50565b9150610e7682610e5b565b600082019050919050565b6000610e8c82610e5e565b9150819050919050565b7f416464726573733a20756e61626c6520746f2073656e642076616c75652c207260008201527f6563697069656e74206d61792068617665207265766572746564000000000000602082015250565b6000610ef2603a836109e1565b9150610efd82610e96565b604082019050919050565b60006020820190508181036000830152610f2181610ee5565b9050919050565b6000610f338261089a565b9150610f3e8361089a565b925082821015610f5157610f50610af0565b5b82820390509291505056fea2646970667358221220ed3e58638b3ed7d35712b17032ae46db510e53a7b81f8105cc2b347f349eeae264736f6c634300080b0033",
  "immutableReferences": {},
  "source": "// SPDX-License-Identifier: MIT\n\npragma solidity ^0.8.0;\n\n// import \"../utils/Address.sol\";\ncontract PaymentSplitter  {\n    event PayeeAdded(address account, uint256 shares);\n    event PaymentReleased(address to, uint256 amount);\n    event PaymentReceived(address from, uint256 amount);\n    address[] private _payees;\n\n    uint public unLockTimePeriod;\n    uint public percentage=50;\n    uint256 private _totalShares;\n    uint256 private _totalReleased;\n\n    mapping(address => uint256) private _shares;\n    mapping(address => uint256) private _released;\n    \n    mapping(address=>uint) public userTime;\n    /**\n     * @dev Creates an instance of `PaymentSplitter` where each account in `payees` is assigned the number of shares at\n     * the matching position in the `shares` array.\n     *\n     * All addresses in `payees` must be non-zero. Both arrays must have the same non-zero length, and there must be no\n     * duplicates in `payees`.\n     */\n    constructor(address[] memory payees, uint256[] memory shares_,uint _unLockTimePeriod)  {\n        require(payees.length == shares_.length, \"PaymentSplitter: payees and shares length mismatch\");\n        require(payees.length > 0, \"PaymentSplitter: no payees\");\n        unLockTimePeriod=_unLockTimePeriod;\n        for (uint256 i = 0; i < payees.length; i++) {\n            _addPayee(payees[i], shares_[i]);\n            userTime[payees[i]]=block.timestamp;\n        }\n    }\n    function pay() public payable {\n            //  msg.value is the amount of wei sent with the message to the contract. \n            // with this you are setting a minimum amount\n            require(msg.value > .01 ether);\n           \n    }\n    // receive() external payable virtual {\n    //     emit PaymentReceived(_msgSender(), msg.value);\n    // }\n\n    /**\n     * @dev Getter for the total shares held by payees.\n     */\n    function totalShares() public view returns (uint256) {\n        return _totalShares;\n    }\n\n    /**\n     * @dev Getter for the total amount of Ether already released.\n     */\n    function totalReleased() public view returns (uint256) {\n        return _totalReleased;\n    }\n\n    /**\n     * @dev Getter for the amount of shares held by an account.\n     */\n    function shares(address account) public view returns (uint256) {\n        return _shares[account];\n    }\n\n    /**\n     * @dev Getter for the amount of Ether already released to a payee.\n     */\n    function released(address account) public view returns (uint256) {\n        return _released[account];\n    }\n\n\n    /**\n     * @dev Getter for the address of the payee number `index`.\n     */\n    function payee(uint256 index) public view returns (address) {\n        return _payees[index];\n    }\n\n    /**\n     * @dev Getter for the amount of payee's releasable Ether.\n     */\n    function releasable(address account) public view returns (uint256) {\n        uint256 totalReceived = address(this).balance + totalReleased();\n        return _pendingPayment(account, totalReceived, released(account));\n    }\n    function sendValue(address payable recipient, uint256 amount) internal {\n        require(address(this).balance >= amount, \"Address: insufficient balance\");\n\n        (bool success, ) = recipient.call{value: amount}(\"\");\n        require(success, \"Address: unable to send value, recipient may have reverted\");\n    }\n\n\n    /**\n     * @dev Triggers a transfer to `account` of the amount of Ether they are owed, according to their percentage of the\n     * total shares and their previous withdrawals.\n     */\n    function release() public virtual {\n        address payable account=payable(msg.sender);\n        require(userTime[msg.sender]>1,\"You don't have share\");\n        require(_shares[account] > 0, \"PaymentSplitter: account has no shares\");\n\n        uint256 fullPayment = releasable(account);\n        uint256 payment =(fullPayment*percentage)/100;\n        require(payment != 0, \"PaymentSplitter: account is not due payment\");\n        require(userTime[msg.sender]<=block.timestamp,\"early withdraw request\");\n        userTime[msg.sender]=block.timestamp + unLockTimePeriod;\n        _released[account] += payment;\n        _totalReleased += payment;\n\n        sendValue(account, payment);\n        emit PaymentReleased(account, payment);\n    }\n\n    /**\n     * @dev internal logic for computing the pending payment of an `account` given the token historical balances and\n     * already released amounts.\n     */\n    function _pendingPayment(\n        address account,\n        uint256 totalReceived,\n        uint256 alreadyReleased\n    ) private view returns (uint256) {\n        return (totalReceived * _shares[account]) / _totalShares - alreadyReleased;\n    }\n\n    /**\n     * @dev Add a new payee to the contract.\n     * @param account The address of the payee to add.\n     * @param shares_ The number of shares owned by the payee.\n     */\n    function _addPayee(address account, uint256 shares_) private {\n        require(account != address(0), \"PaymentSplitter: account is the zero address\");\n        require(shares_ > 0, \"PaymentSplitter: shares are 0\");\n        require(_shares[account] == 0, \"PaymentSplitter: account already has shares\");\n\n        _payees.push(account);\n        _shares[account] = shares_;\n        _totalShares = _totalShares + shares_;\n        emit PayeeAdded(account, shares_);\n    }\n    \n    function getContractbalance()public view returns(uint){\n        return address(this).balance;\n    }\n}\n\n// [\"0x5B38Da6a701c568545dCfcB03FcB875f56beddC4\",\"0xAb8483F64d9C6d1EcF9b849Ae677dD3315835cb2\",\"0x4B20993Bc481177ec7E8f571ceCaE8A9e22C02db\"]\n//  [\"0x90F8bf6A479f320ead074411a4B0e7944Ea8c9C1\",\"0xFFcf8FDEE72ac11b5c542428B35EEF5769C409f0\",\"0x22d491Bde2303f2f43325b2108D26f1eAbA1e32b\"]",
  "sourcePath": "D:\\blockchain\\PaySpliter\\contracts\\PaymentSplitter.sol",
  "compiler": {
    "name": "solc",
    "version": "0.8.11+commit.d7f03943.Emscripten.clang"
  },
  "schemaVersion": "3.4.4",
  "updatedAt": "2022-07-03T07:56:10.703Z",
  "networkType": "ethereum",
  "devdoc": {
    "kind": "dev",
    "methods": {
      "constructor": {
        "details": "Creates an instance of `PaymentSplitter` where each account in `payees` is assigned the number of shares at the matching position in the `shares` array. All addresses in `payees` must be non-zero. Both arrays must have the same non-zero length, and there must be no duplicates in `payees`."
      },
      "payee(uint256)": {
        "details": "Getter for the address of the payee number `index`."
      },
      "releasable(address)": {
        "details": "Getter for the amount of payee's releasable Ether."
      },
      "release()": {
        "details": "Triggers a transfer to `account` of the amount of Ether they are owed, according to their percentage of the total shares and their previous withdrawals."
      },
      "released(address)": {
        "details": "Getter for the amount of Ether already released to a payee."
      },
      "shares(address)": {
        "details": "Getter for the amount of shares held by an account."
      },
      "totalReleased()": {
        "details": "Getter for the total amount of Ether already released."
      },
      "totalShares()": {
        "details": "Getter for the total shares held by payees."
      }
    },
    "version": 1
  },
  "userdoc": {
    "kind": "user",
    "methods": {},
    "version": 1
  }
}